:020000040800F2
:100000008805002039020008A70700089F0700089C
:10001000A307000845030008BB1500080000000006
:10002000000000000000000000000000A101000826
:100030000506000800000000E50100081D0B00088F
:10004000530200085302000853020008530200083C
:10005000530200085302000853020008530200082C
:1000600053020008530200084D060008530200081E
:10007000530200085302000853020008530200080C
:1000800065030008530200085302000853020008E9
:1000900053020008530200085302000853020008EC
:1000A00053020008530200085302000853020008DC
:1000B000B90B00085302000853020008530200085D
:1000C00053020008530200085302000853020008BC
:1000D000530200082D0F0008ED100008530200081D
:1000E000530200085302000853020008530200089C
:1000F000530200085302000853020008530200088C
:10010000530200085302000853020008530200087B
:10011000530200085302000853020008530200086B
:10012000530200085302000853020008530200085B
:10013000530200085302000853020008530200084B
:10014000530200085302000853020008530200083B
:10015000530200085302000853020008530200082B
:10016000530200085302000853020008530200081B
:10017000530200085302000853020008530200080B
:100180005302000853020008DFF810D000F0B8F85E
:1001900000480047811A0008AFF30080880500205E
:1001A000224B19680868B0E8F00F80F30988BFF3A4
:1001B0006F8F4FF0000080F311884EF00D0E7047E6
:1001C0000000000006480068006880F3088862B6F6
:1001D00061B6BFF34F8FBFF36F8F00DF00BF00BF6B
:1001E00008ED00E0EFF30980BFF36F8F0F4B1A6843
:1001F00020E9F00F106008B54FF0500080F311882F
:10020000BFF34F8FBFF36F8F01F064FC4FF000001E
:1002100080F31188BDE8084019680868B0E8F00F5D
:1002200080F30988BFF36F8F704700BF4C00002038
:10023000EFF30580704700000648804706480047F6
:10024000FEE7FEE7FEE7FEE7FEE7FEE7FEE7FEE786
:10025000FEE7FEE7510B000889010008D2B201E079
:1002600000F8012B491EFBD270470022F6E710B5BB
:1002700013460A4604461946FFF7F0FF204610BD14
:100280002DE9F05F0546002092469B4688460646CB
:10029000814640241BE0284641464746224600F05E
:1002A00041F853465A46C01A914110D31146184698
:1002B000224600F016F82D1A67EB01084F46224639
:1002C0000120002100F00DF817EB00094E41201E1F
:1002D000A4F10104DFDC484631462A464346BDE826
:1002E000F09F202A04DB203A00FA02F10020704738
:1002F0009140C2F1200320FA03F319439040704764
:10030000064C074D06E0E06840F0010394E8070062
:1003100098471034AC42F6D3FFF73AFF1C1D000893
:100320003C1D0008202A04DB203A21FA02F00021BB
:10033000704721FA02F3D040C2F1200291400843F5
:100340001946704700BFFEE710B5024600230020A3
:1003500004E032F810401C44A3B2401C8842F8DB91
:10036000D8B210BD10B57E497E4800F019F90028BA
:100370007DD07D48007855285AD10A217A48FFF768
:10038000E3FFC0B27849897A8842F5D1764840784F
:1003900051284ED1744880787349C97840EA0120C9
:1003A00000B200EE100A704800796F49497940EABE
:1003B000012000B200EE900A6B4880796A49C97941
:1003C00040EA012000B201EE100AF8EEC01A9FEDDB
:1003D000672AC1EE822AF3EE001A62EEA11A9FED9F
:1003E000642A61EE821A6348C0ED001AF8EEE01A42
:1003F0009FED5E2AC1EE822AF3EE001A62EEA11A88
:100400009FED5B2A61EE821A5B48C0ED001AF8EEA0
:10041000C11A9FED562AC1EE822AF3EE001A62EE4F
:10042000A11A9FED532A61EE821A5448C0ED001ABA
:100430008FE04D484078522844D14B4880784A4953
:10044000C97840EA012000B200EE100A464800795F
:100450004549497940EA012000B200EE900A42483D
:1004600080794149C97940EA012000B200E076E094
:1004700001EE100AB8EEC02ADFED3C2AC2EE221AC5
:100480009FED3F2A61EE821A3E48C0ED001AF8EE59
:10049000E01A9FED362AC1EE822ADFED391A62EEAC
:1004A000A11A3948C0ED001AF8EEC11A9FED2F2AA3
:1004B000C1EE822ADFED321A62EEA11A3348C0ED96
:1004C000001A46E028484078532842D126488078D0
:1004D0002549C97840EA012000B200EE100A2248FE
:1004E00000792149497940EA012000B200EE900AE2
:1004F0001D4880791C49C97940EA012000B201EE0B
:10050000100AB8EEC02ADFED192AC2EE221A9FEDBA
:10051000202A61EE821A1F48C0ED001AF8EEE01A98
:100520009FED122AC1EE822ADFED191A62EEA11A9E
:100530001948C0ED001AF8EEC11ADFED0C2A81EE61
:10054000A22ADFED131A62EE211A1448C0ED001A38
:1005500000BF05480021016041600181817210BD2A
:100560000088002088600240A600002000000047AC
:10057000CDCC1C4124000020280000202C000020AD
:100580000000FA4430000020340000203800002031
:10059000000034433C0000204000002044000020C4
:1005A00070B50246002000240025124EB24201D24E
:1005B000114B01E00F4B103B104E0E4036B11E2682
:1005C00006EAD124166806EA040502E0566906F038
:1005D000800501F000560EB15C6800E01C68084E12
:1005E000344004EA010616B10DB1012000E00020FC
:1005F00070BD000010640240006002403C0F3C0FE0
:100600007D0F7D0F704700B5034603E04FF47A700D
:1006100000F005F8181EA3F10103F7D100BDA821D1
:1006200041434FF0E02251610021916105211161A8
:1006300000BF4FF0E021096901F480310029F8D0B2
:1006400004214FF0E02211617047000010B5102026
:1006500000F02AF8D8B11E20FFF7D5FF00BF0C48E4
:1006600001680068401E0A4A10600029F7D1094855
:10067000114608604FF40071074800F08CF84FF401
:100680008061054800F087F8102000F007F810BDE1
:100690001C00002080841E000014024001490860F4
:1006A00070470000143C014001460020034A1268D4
:1006B0000A400AB1012000E000207047143C0140CC
:1006C000F0B50A4600210023002400BF3DE00125CB
:1006D00005FA01F3156805EA03049C4234D1056864
:1006E0004F000326BE40B543056015794E00B54066
:1006F0000668354305601579012D02D01579022D64
:1007000016D185684F000326BE40B54385605579F4
:100710004E00B540866835438560456801268E40A9
:10072000B5434560456896798E40B6B2354345601D
:10073000C5684F000326BE40B543C560D5794E005D
:10074000B540C6683543C560491C1029BFD3F0BD0C
:10075000F0B5002300244D07ED0E02FA05F3CE108C
:1007600000F1200555F826504E07F70E0F26BE4023
:10077000B543CF1000F1200646F82750CE1000F107
:10078000200555F8265045EA0304CE1000F1200557
:1007900045F82640F0BD42694A404261704700BFBB
:1007A000FEE700BFFEE7704770B5002100230F226F
:1007B000C4781CB3174C246804F4E064C4F5E06406
:1007C000C4F30721C1F10404E3B20A4144789C4018
:1007D000E1B28478144021430C07210E0E4C0578B9
:1007E0006155047804F01F050124AC4005786D11B3
:1007F000AD0005F1E025C5F8004109E0047804F0FA
:100800001F050124AC40054D0678761145F82640B9
:1008100070BD00000CED00E000E400E080E100E0CD
:1008200002490143024A1160704700000000FA05C6
:100830000CED00E000B58BB00121022000F064F85F
:100840000121022000F050F8022200212448FFF785
:100850007FFF022201212248FFF77AFF032009903F
:1008600002208DF8280003208DF8290000208DF843
:100870002A0001208DF82B0009A91948FFF720FF55
:1008800042F2CF00ADF818000020ADF81A00C720E2
:1008900007900020ADF8200006A9124800F084FA65
:1008A0006020ADF804000120ADF806000020ADF88E
:1008B000100001A90B4800F0D3F901A9094800F084
:1008C00029FA0821074800F01BFA0821054800F022
:1008D0005DFA0121034800F09CF90BB000BD000057
:1008E000000402400004004029B1064A1268024395
:1008F000044B1A6004E0034A12688243014B1A60F9
:10090000704700003038024029B1064A126802439D
:10091000044B1A6004E0034A12688243014B1A60D8
:10092000704700004038024029B1064A126802436D
:10093000044B1A6004E0034A12688243014B1A60B8
:100940007047000044380240F0B500210022002426
:10095000022500260223324F3F6807F00C0121B127
:10096000042905D0082937D105E02E4F076036E06D
:100970002D4F076033E02A4F3F1F3F68C7F3805673
:10098000274F3F1F3F6807F03F036EB1264FB7FB6D
:10099000F3F7DFF88CC0ACF1040CDCF800C0CCF34A
:1009A000881C07FB0CF40CE01E4FB7FBF3F7DFF8D5
:1009B00070C0ACF1040CDCF800C0CCF3881C07FB61
:1009C0000CF4174F3F1F3F68C7F301477F1C7D00A2
:1009D000B4FBF5F7076002E0124F076000BF00BFED
:1009E0000F4F3F6807F0F0010909104F7A5C076864
:1009F000D74047600A4F3F6807F4E051890A0B4F20
:100A00007A5C4768D7408760054F3F6807F46041CC
:100A1000490B064F7A5C4768D740C760F0BD0000BD
:100A2000083802400024F40000127A000000002080
:100A30000CB50020019000903448006840F48030EC
:100A40003249086000BF3148006800F4003000906F
:100A50000198401C0190009818B90198B0F5A04F7A
:100A6000F1D12A48006800F4003010B10120009054
:100A700001E0002000900098012846D12348403032
:100A8000006840F0805021494031086020480068EB
:100A900040F440401E4908601C48083000681B496B
:100AA000083108600846006840F4004008600846C5
:100AB000006840F4A05008601648091F0860081F2D
:100AC000006840F08070091F086000BF0F48006890
:100AD00000F000700028F9D040F205700E4908605F
:100AE0000A480830006820F003000849083108600F
:100AF0000846006840F00200086000BF0348083064
:100B0000006800F00C000828F8D10CBD0038024045
:100B10000070004008544007003C024010B500BF80
:100B2000502080F31188BFF34F8FBFF36F8F00BF4A
:100B300001F016F818B14FF080500449086000BF6A
:100B4000002080F3118800BF10BD000004ED00E01C
:100B500010B51548006840F4700013490860134848
:100B6000006840F001001149086000200F49083179
:100B700008600E4800680E4908400C4908600D489E
:100B8000091D0860081F006820F48020091F086004
:100B9000002006490C310860FFF74AFF4FF0006063
:100BA00001498039086010BD88ED00E0003802403E
:100BB000FFFFF6FE1030002410B50121880700F079
:100BC00034F868B10748018807A000F0FFFC0A4824
:100BD00001880AA000F0FAFC0121880700F016F84D
:100BE00010BD000018000020506F735F78203D207A
:100BF00025640D0A000000001A000020506F735F8A
:100C000079203D2025640D0A00000000CA430282BD
:100C1000704721B1028842F00102028004E002889C
:100C20004FF6FE731A400280704730B5024600202E
:100C300000230024158A05EA0103958905EA0104C9
:100C400013B10CB1012000E0002030BD1AB183893E
:100C50000B43838102E083898B43838170470000CB
:100C600070B5002400220023058C4FF6FF66354046
:100C70000584028C8388848B4FF68F752C404FF649
:100C8000FC752C400D882C434FF6FF552A408D896A
:100C90004FF6FF7606EA05252A434D8806EA052524
:100CA0002A43154DA84202D0144DA8421DD14FF23F
:100CB000FF752A40CD894FF6FF7606EA05252A43BF
:100CC0004FF6FF352A408D8806EA05252A434EF661
:100CD000FF752B404DF6FF752B400D8A06EA051572
:100CE0002B434D8A06EA05152B43838084838D6848
:100CF000C563028470BD0000000001400004014093
:100D00000A460021818B4FF6F77319401143818306
:100D10007047000070B5002200230024058C4EF6B9
:100D2000FF7635400584038C8488828B48F6FF75F6
:100D30002A404FF6FF452A400D884FF6FF7606EA17
:100D400005252A434DF6FF752B408D8906EA0535AA
:100D50002B434D8806EA05352B430A4DA84202D0A5
:100D6000094DA84208D14BF6FF752C400D8A4FF66D
:100D7000FF7606EA85152C43848082838D6805649E
:100D8000038470BD00000140000401400A460021B8
:100D9000818B4FF2FF7319404FF6FF7303EA022372
:100DA000194381837047000000220288184B984243
:100DB0000ED0184B98420BD0B0F1804F08D0164B94
:100DC000984205D0154B984202D0154B984204D159
:100DD0004FF68F731A404B881A43124B984207D034
:100DE000114B984204D04FF6FF431A400B891A4327
:100DF00002804B68C3620B880385054B984202D082
:100E0000044B984201D18B7A038601238382704779
:100E100000000140000401400004004000080040C0
:100E2000000C004000100040001400400EB50121ED
:100E30000846FFF769FD0020ADF80800ADF8020094
:100E400040F2F31001905320ADF8000069464FF0D6
:100E50008040FFF7A9FF00F00BF801218807FFF79A
:100E6000D8FE0EBD10B5FFF7E1FF00F001F810BD90
:100E700008B54FF4A060FFF7D3FC1C208DF80000EC
:100E800001208DF803008DF8010000208DF802008C
:100E90006846FFF789FC012211469007FFF7D6FE4E
:100EA00008BD000000B587B001210846FFF71CFD12
:100EB00001211020FFF738FD072209211948FFF70B
:100EC00047FC07220A211748FFF742FC02208DF851
:100ED000180000208DF81A0001208DF81B00032057
:100EE0008DF819004002059005A90E48FFF7E8FBB0
:100EF0004FF4613001900020ADF810000C20ADF8E7
:100F00000E000020ADF80A00ADF80C00ADF80800A6
:100F100001A9054800F0C4FA0121034800F057FA7E
:100F200007B000BD000002400010014010B52021B4
:100F3000464800F058FA00287DD040F22551434839
:100F400000F05EFA00286ED040F225513F4800F0D4
:100F50002FFA3E4800F02CFBC4B23D48007868B937
:100F6000112C0BD13B4801780078401C394A107095
:100F70003948445401203649087053E03448007819
:100F800001280FD1334801780078401C314A107095
:100F90003148445410460078052843D102202C499A
:100FA00008703FE02A48007802280DD1992C0BD117
:100FB000284801780078401C264A1070264844547E
:100FC0000320234908702DE021480078032820D110
:100FD000204801780078401C1E4A10701E48445476
:100FE00080781D49497840EA01201C4908801A4848
:100FF00000791949C97840EA012019490880002080
:1010000013490870114608701348002101600171EE
:1010100008E000200F4908700D4908700E480021B3
:101020000160017100BF4FF45871084800F0E8F901
:1010300008B1064800E008E000F0BAFAC4B24FF484
:101040005871024800F0B4F900BF10BD0010014013
:1010500016000020150000201000002018000020BD
:101060001A00002000B587B001210846FFF73CFCBC
:1010700001214804FFF748FC072202211948FFF725
:1010800067FB072203211748FFF762FB02208DF858
:10109000180000208DF81A0001208DF81B00032095
:1010A0008DF819000C20059005A90E48FFF708FBE4
:1010B0004FF4613001900020ADF810000C20ADF825
:1010C0000E000020ADF80A00ADF80C00ADF80800E5
:1010D00001A9054800F0E4F90121034800F077F97F
:1010E00007B000BD000002400044004070B540F26F
:1010F00025519F4800F084F90546002440F2255010
:10110000284000287ED09A4800F052FA04469948B8
:10111000007860B9552C0AD121B29648027800783F
:10112000401C944B1870944820F812101AE1914812
:10113000007801280EDB8F48007809280ADC21B2EC
:101140008C4802780078401C8A4B18708A4820F836
:10115000121007E1874800780A287DD10A218648C5
:10116000FFF7F2F8C0B2A042F7D121B2814802786D
:101170000078401C7F4B18707F4820F81210408880
:10118000512850D17C4880887B49897940EA0120E8
:1011900000B200EE100A784800897749897A40EA5F
:1011A000012000B200EE900A734880897249897B61
:1011B00040EA012000B201EE100AF8EEC01ADFED9D
:1011C0006F2A81EEA22AF3EE001A62EE211A9FED39
:1011D0006C2A61EE821A6B48C0ED001AF8EEE01A34
:1011E0009FED662AC1EE822AF3EE001A62EEA11A82
:1011F0009FED632A61EE821A6348C0ED001AB8EED3
:10120000C12A00E0B3E0DFED5D2AC2EE221AB3EEA0
:10121000002A61EE821A9FED5A2A61EE821A5B481B
:10122000C0ED001A8FE054484088522844D15248FB
:1012300080885149897940EA012000B200EE100A05
:101240004D4800894C49897A40EA012000B200EEFD
:10125000900A4948808900E07DE04749897B40EA5F
:10126000012000B201EE100AF8EEC01A9FED432AE9
:10127000C1EE822ADFED461A62EEA11A4548C0EDA2
:10128000001AB8EEE02ADFED3D2AC2EE221A9FEDE9
:10129000402A61EE821A4048C0ED001AB8EEC12A19
:1012A000DFED362AC2EE221A9FED392A61EE821A4C
:1012B0003A48C0ED001A46E02F484088532842D1F2
:1012C0002D4880882C49897940EA012000B200EE3F
:1012D000100A294800892849897A40EA012000B289
:1012E00000EE900A244880892349897B40EA012046
:1012F00000B201EE100AB8EEC02ADFED202AC2EEDD
:10130000221A9FED272A61EE821A2648C0ED001AA4
:10131000F8EEE01A9FED192AC1EE822ADFED201ABD
:1013200062EEA11A2048C0ED001AB8EEC12ADFED26
:10133000132AC2EE221A9FED1A2A61EE821A1B4866
:10134000C0ED001A00BF16210B48FEF78EFF0020EB
:101350000849087006E016210748FEF786FF0020BE
:101360000449087040F22551014800F021F870BD91
:101370000044004049000020900000200000004789
:10138000CDCC1C4124000020280000202C0000208F
:101390000000FA4430000020340000203800002013
:1013A000000034433C0000204000002044000020A6
:1013B00010B50022002340F66A14A14200D100BFFC
:1013C0000A1201249440A3B2DC43048010BD21B171
:1013D000828942F40052828104E082894DF6FF73D3
:1013E0001A408281704702460020B1F5007F00D18B
:1013F00000BF13880B400BB1012000E000207047B4
:1014000070B50246002400230025002040F66A162D
:10141000B14200D100BFC1F3421501F01F03012604
:1014200006FA03F3012D02D19689334006E0022D1E
:1014300002D1168A334001E0968A33400C1201260D
:1014400006FA04F41688344013B10CB1012000E010
:10145000002070BDF0B503460024002600250020C2
:1014600040F66A17B94200D100BF1846C1F34214D2
:1014700001F01F06012707FA06F5012C01D10C30F7
:1014800004E0022C01D1103000E014301AB10768DA
:101490002F43076002E00768AF430760F0BD00001C
:1014A0002DE9FF4705460E460024A14600BFA04691
:1014B000B08900B100BF2C8A24F44054F088044362
:1014C0002C82AC8941F20C608443B0883189084396
:1014D000718908430443AC81AC8A24F44074B08918
:1014E0000443AC826846FFF72FFA2048854202D0B9
:1014F0001F48854202D1DDF80C9001E0DDF808902C
:10150000A88900F4004040B109EBC90000EB0910C4
:1015100031684900B0FBF1F707E009EBC90000EBC7
:10152000091031688900B0FBF1F76420B7FBF0F0D7
:1015300004012009642101FB1078A88900F400400F
:1015400040B1322000EBC800B0FBF1F000F0070022
:10155000044308E0322000EB08106421B0FBF1F0F6
:1015600000F00F0004432C81BDE8FF87001001400C
:101570000014014008B54FF4A060FFF751F9252091
:101580008DF8000001208DF8030000208DF8010087
:1015900001208DF802006846FFF706F9012240F2AB
:1015A00025510248FFF756FF08BD0000001001401A
:1015B00001468888C0F30800704700BFFEE710B5F9
:1015C000FFF770FCFFF7D6FF10BD00000FB4054B0E
:1015D00010B503A9044A029800F018F810BC5DF891
:1015E00014FB0000651A00088C00002002E008C807
:1015F000121F08C1002AFAD170477047002001E08D
:1016000001C1121F002AFBD1704700002DE9FF4FD6
:101610008DB00F460546002606E025280BD0DDE9F3
:101620000F1290476D1C761C28780028F5D111B058
:101630003046BDE8F08F0024A246A1460122E949C8
:1016400000E0044315F8013F203B02FA03F0084292
:10165000F7D128782A2810D06FF02F022878A0F12F
:101660003001092914D80AEB8A0102EB410144F048
:10167000020400EB010A6D1CF0E701CF5FEA000AEB
:1016800003D544F40054CAF1000A44F002046D1C6E
:1016900028782E2817D115F8010F44F004042A28C1
:1016A0000ED06FF02F022878A0F1300109290AD856
:1016B00009EB890102EB410100EB01096D1CF2E726
:1016C00057F8049B6D1C28786C280FD006DC4C283A
:1016D00017D068280DD06A2814D104E0742810D0DF
:1016E0007A280FD10DE044F400140AE044F4801489
:1016F00001E044F440146978814202D104F5801479
:101700006D1C6D1C28786E281ED00CDC632830D030
:1017100004DC00288BD0582811D19FE0642867D0C2
:1017200069280CD164E073282DD004DC6F2872D0B6
:10173000702804D194E075286ED078286DD0DDE94A
:101740000F129047761C4BE1C4F30250022806D0DA
:10175000032809D0042801CF09D0066040E101CF59
:10176000F117C0E900613BE101CF068038E1067066
:1017700036E117F8040B8DF8000000208DF8010009
:10178000EB46012003E057F804BB4FF0FF30610740
:101790004FF0000102D40DE008F1010188464945EF
:1017A0000FDA8045F8DB1BF808100029F4D108E0B7
:1017B00008F1010188468142FADB1BF80810002974
:1017C000F6D1DDE90F23AAEB08008146214600F09F
:1017D00031F9304400EB080604E0DDE90F121BF894
:1017E000010B9047B8F10108F7D221464846F2E0D4
:1017F0000A21C4F302524FF0000B0891022A04D0D0
:1018000001CFC117032A09D00AE0FF1D27F00707FF
:10181000F7E8020108E02CE01EE01FE000B2C1176B
:10182000042A01D140B2C117021E71F1000206DA8A
:101830000023D0EB030063EB01012D2202E022051F
:1018400004D52B228DF82420012203E0E20701D0E9
:101850002022F7E7904653E00A210BE0102109E02F
:1018600010214FF0000B44F004044FF008090891D8
:1018700003E008214FF0000B0891C4F30252022A42
:1018800004D001CF0021032A06D006E0FF1D27F077
:101890000707F7E8020103E080B2042A00D1C0B2D2
:1018A0004FF0000822072BD52A78702A07D0DDF8E0
:1018B00020C08CF0100C5CEA0B0C05D00EE040222E
:1018C0008DF82420012208E050EA010306D03023DD
:1018D0008DF824308DF8252002229046089B83F055
:1018E000080353EA0B030BD150EA010201D162074E
:1018F00006D530228DF824204FF00108A9F1010906
:101900002A78582A04D038A20B9208AA0A920BE02F
:101910003AA2F9E75B46089AFEF7B2FC0B9B9B5C88
:101920000A9A521E0A92137050EA0102F2D10A98E2
:10193000ADEB000000F1200B600702D524F48034E9
:1019400001E04FF00109D94502DDA9EB0B0000E0F1
:10195000002000EB0B0141440890AAEB010AE003D0
:1019600006D4DDE90F232146504600F063F8064413
:101970004FF0000908E009A911F80900DDE90F128C
:10198000904709F10109761CC145F4DBE0030CD551
:10199000DDE90F232146504600F04CF8064404E0F0
:1019A000DDE90F1230209047761C0899481E0890F8
:1019B0000029F5DC08E00A980A990078491C0A9188
:1019C000DDE90F129047761CBBF10001ABF1010B72
:1019D000F1DC21465046DDE90F2300F019F80644FA
:1019E0006D1C21E609280100303132333435363799
:1019F000383961626364656600000000303132335B
:101A000034353637383941424344454600000000FA
:101A10002DE9F041044600251E461746880404D4EB
:101A200005E039462020B0476D1C641EF9D52846D4
:101A3000BDE8F0812DE9F041044600251E469046A0
:101A4000C80301D5302700E02027880404D505E02D
:101A500041463846B0476D1C641EF9D52846BDE89E
:101A6000F081000000BF054A128802F04002002AFF
:101A7000F9D0C2B2014B1B1D1A80704700440040D0
:101A8000FFF79DFDFFF7EEFAFEF7D4FE962004491E
:101A90000860091D0860FFF7E5F900BFFEE70000D8
:101AA0003C04004009480068006808B9012000E0D3
:101AB000002020B14FF0FF300549086005E00348E1
:101AC0000068C06800680249086070475000002044
:101AD0007C0000201D48006818B101201C490860E6
:101AE00032E000201A4908601A480068B0FA80F015
:101AF000C0F11F0101EB8100174A52F8200008B124
:101B0000012000E0002050B900BF502080F3118870
:101B1000BFF34F8FBFF36F8F00BF00BFFEE701EB36
:101B200081020D4B03EB820042685268426000F173
:101B300008024368934202D1426852684260426898
:101B4000D268064B1A6000BF704700008800002072
:101B50007000002064000020BC0000204C00002029
:101B60002DE9F0414FF000086148006800287DD160
:101B700060480068451C5F48056015BB5E4800680A
:101B8000006808B9012000E0002050B900BF5020D3
:101B900080F31188BFF34F8FBFF36F8F00BF00BF7B
:101BA000FEE75548076855480068534908605348A0
:101BB000076053480068401C51490860FFF772FFF6
:101BC00000BF50480068854277D300BF4A4800688C
:101BD000006808B9012000E0002020B14FF0FF307C
:101BE0004849086068E044480068C068C46866689E
:101BF000B54202D2434806605EE06069D4E9021251
:101C00008A60D4E902214A60211D42688A4201D1DA
:101C1000E1684160002262610168491E0160A06ABA
:101C200098B1A06AD4E907128A60D4E907214A6012
:101C300004F1180142688A4201D1216A4160002200
:101C4000A2620168491E016000BF94F82C100120B7
:101C500088402D49096808432B490860E16A01EB77
:101C600081012A4A02EB8101486800E037E0A06068
:101C70008268E260211D826851608160E16A01EB47
:101C80008101224A02EB81026261E16A01EB81017A
:101C90001E4A52F82110491CE26A02EB82021B4BD9
:101CA00043F822101A49E06A0968C96A88428DD946
:101CB0004FF001088AE700E000BF15480068C06ADD
:101CC00000EB8000114951F82000012801D94FF0A4
:101CD00001081048006808B14FF0010804E00E4800
:101CE0000068401C0C4908604046BDE8F0810000D7
:101CF00088000020600000205000002054000020D8
:101D0000740000207C00002064000020BC00002043
:101D10004C000020700000206C0000203C1D0008DA
:101D20000000002090000000EC150008CC1D000809
:101D300090000020F8040000FC15000800000000DE
:101D40000102030401020304060708090000000061
:101D5000000000000000000080841E000000000061
:101D60000000000000000000000000000000000073
:101D70000000000000000000000000000000000063
:101D80000000000000000000000000000000000053
:101D90000000000000000000000000000000000043
:101DA0000000000000000000000000000000000033
:101DB0000000000000000000000000000000000023
:0C1DC00004000000000000000000000013
:040000050800018965
:00000001FF
